{
  "_format": "hh-sol-artifact-1",
  "contractName": "KnightSafeProxyFactory",
  "sourceName": "contracts/proxies/KnightSafeProxyFactory.sol",
  "abi": [
    {
      "anonymous": false,
      "inputs": [
        {
          "indexed": true,
          "internalType": "contract KnightSafeProxy",
          "name": "proxy",
          "type": "address"
        },
        {
          "indexed": false,
          "internalType": "address",
          "name": "implementation",
          "type": "address"
        }
      ],
      "name": "ProxyCreation",
      "type": "event"
    },
    {
      "inputs": [
        {
          "internalType": "address",
          "name": "implementation",
          "type": "address"
        },
        {
          "internalType": "bytes",
          "name": "data",
          "type": "bytes"
        }
      ],
      "name": "createProxy",
      "outputs": [
        {
          "internalType": "contract KnightSafeProxy",
          "name": "proxy",
          "type": "address"
        }
      ],
      "stateMutability": "nonpayable",
      "type": "function"
    }
  ],
  "bytecode": "0x608060405234801561001057600080fd5b506106ac806100206000396000f3fe608060405234801561001057600080fd5b506004361061002b5760003560e01c806361b69abd14610030575b600080fd5b61004a600480360381019061004591906102d6565b610060565b6040516100579190610391565b60405180910390f35b60008260405161006f90610111565b61007991906103bb565b604051809103906000f080158015610095573d6000803e3d6000fd5b5090506000825111156100bd5760008060008451602086016000865af1036100bc57600080fd5b5b8073ffffffffffffffffffffffffffffffffffffffff167f4f51faf6c4561ff95f067657e43439f0f856d97c04d9ec9070a6199ad418e2358460405161010391906103bb565b60405180910390a292915050565b6102a0806103d783390190565b6000604051905090565b600080fd5b600080fd5b600073ffffffffffffffffffffffffffffffffffffffff82169050919050565b600061015d82610132565b9050919050565b61016d81610152565b811461017857600080fd5b50565b60008135905061018a81610164565b92915050565b600080fd5b600080fd5b6000601f19601f8301169050919050565b7f4e487b7100000000000000000000000000000000000000000000000000000000600052604160045260246000fd5b6101e38261019a565b810181811067ffffffffffffffff82111715610202576102016101ab565b5b80604052505050565b600061021561011e565b905061022182826101da565b919050565b600067ffffffffffffffff821115610241576102406101ab565b5b61024a8261019a565b9050602081019050919050565b82818337600083830152505050565b600061027961027484610226565b61020b565b90508281526020810184848401111561029557610294610195565b5b6102a0848285610257565b509392505050565b600082601f8301126102bd576102bc610190565b5b81356102cd848260208601610266565b91505092915050565b600080604083850312156102ed576102ec610128565b5b60006102fb8582860161017b565b925050602083013567ffffffffffffffff81111561031c5761031b61012d565b5b610328858286016102a8565b9150509250929050565b6000819050919050565b600061035761035261034d84610132565b610332565b610132565b9050919050565b60006103698261033c565b9050919050565b600061037b8261035e565b9050919050565b61038b81610370565b82525050565b60006020820190506103a66000830184610382565b92915050565b6103b581610152565b82525050565b60006020820190506103d060008301846103ac565b9291505056fe608060405234801561001057600080fd5b506040516102a03803806102a08339818101604052810190610032919061014a565b600073ffffffffffffffffffffffffffffffffffffffff168173ffffffffffffffffffffffffffffffffffffffff16036100a1576040517f08c379a0000000000000000000000000000000000000000000000000000000008152600401610098906101fa565b60405180910390fd5b806000806101000a81548173ffffffffffffffffffffffffffffffffffffffff021916908373ffffffffffffffffffffffffffffffffffffffff1602179055505061021a565b600080fd5b600073ffffffffffffffffffffffffffffffffffffffff82169050919050565b6000610117826100ec565b9050919050565b6101278161010c565b811461013257600080fd5b50565b6000815190506101448161011e565b92915050565b6000602082840312156101605761015f6100e7565b5b600061016e84828501610135565b91505092915050565b600082825260208201905092915050565b7f496d706c656d656e746174696f6e20616464726573732073686f756c64206e6f60008201527f74206265206e756c6c2e00000000000000000000000000000000000000000000602082015250565b60006101e4602a83610177565b91506101ef82610188565b604082019050919050565b60006020820190508181036000830152610213816101d7565b9050919050565b6078806102286000396000f3fe608060405273ffffffffffffffffffffffffffffffffffffffff600054163660008037600080366000845af43d6000803e8060008114603d573d6000f35b3d6000fdfea26469706673582212200a69cf760612abeee73c3403dbaa93acd267d5d4ff226543d581a76d871ed87264736f6c63430008120033a26469706673582212209b06537a53ef4ae75e8e06263407a5f141b0dcab23c7e672689a8d0f7a7bd76e64736f6c63430008120033",
  "linkReferences": {},
  "deployedLinkReferences": {}
}